:020000040000FA
:100000000C9463000C948B000C948B000C94820570
:100010000C9482050C9482050C948B000C948B003C
:100020000C948B000C948B000C948B000C948B0024
:100030000C948B000C948B000C948B000C948B0014
:100040000C9438050C948B000C9406050C94E00479
:100050000C948B000C948B000C948B000C948B00F4
:100060000C948B000C948B000000000024002700EF
:100070002A0000000008000201000003040700003D
:1000800000000000000000000000230026002900FE
:1000900000000000250028002B00040404040404D0
:1000A0000404020202020202030303030303010227
:1000B00004081020408001020408102001020408F6
:1000C0001020FA05B00B11241FBECFEFD8E0DEBF21
:1000D000CDBF13E0A0E0B1E0E2E5FAE102C0059097
:1000E0000D92A831B107D9F724E0A8E1B3E001C02F
:1000F0001D92A336B207E1F710E0C2E6D0E004C0DB
:100100002197FE010E94210CC136D107C9F70E9438
:10011000F6060C941C0D0C940000A0914204B091C2
:100120004304ED91FC9111970280F381E02D42E0B0
:1001300050E0BC01CD010994CF93DF93CDB7DEB77A
:1001400028970FB6F894DEBF0FBECDBF45E0489F9D
:100150009001499F300D1124E0911E04F0911F047D
:10016000E20FF31F9081218134814CE349834EE3F8
:1001700048878A832B839C832D839E833F83CE0174
:1001800001960E948D0028960FB6F894DEBF0FBE30
:10019000CDBFDF91CF910895AF92BF92CF92DF9202
:1001A000EF92FF920F931F93CF93DF936C017B012C
:1001B0008B01040F151FEB015E01AE18BF08C017BD
:1001C000D10759F06991D601ED91FC910190F08130
:1001D000E02DC6010995892B79F7C501DF91CF91F3
:1001E0001F910F91FF90EF90DF90CF90BF90AF9055
:1001F0000895FC01538D448D252F30E0842F90E02D
:10020000821B930B541710F0CF9608950197089511
:10021000FC01918D828D981761F0A28DAE0FBF2FDA
:10022000B11D5D968C91928D9F5F9F73928F90E030
:1002300008958FEF9FEF0895FC01918D828D98179F
:1002400031F0828DE80FF11D858D90E008958FEFDC
:100250009FEF0895FC01918D228D892F90E0805CA5
:100260009F4F821B91098F739927089586E693E02B
:100270000E942A0121E0892B09F420E0822F0895B1
:1002800080E090E0892B29F00E94360181110C94C6
:1002900000000895FC01A48DA80FB92FB11DA35A29
:1002A000BF4F2C91848D90E001968F739927848F96
:1002B000A689B7892C93A089B1898C9183708064B9
:1002C0008C93938D848D981306C00288F389E02D5A
:1002D00080818F7D80830895EF92FF920F931F930B
:1002E000CF93DF93EC0181E0888F9B8D8C8D9813E9
:1002F0001AC0E889F989808185FF15C09FB7F894F5
:10030000EE89FF896083E889F98980818370806440
:1003100080839FBF81E090E0DF91CF911F910F918B
:10032000FF90EF900895F62E0B8D10E00F5F1F4F9A
:100330000F731127E02E8C8D8E110CC00FB607FCA9
:10034000FACFE889F989808185FFF5CFCE010E9437
:100350004A01F1CFEB8DEC0FFD2FF11DE35AFF4F5A
:10036000F0829FB7F8940B8FEA89FB8980818062C5
:10037000CFCFCF93DF93EC01888D8823B9F0AA8982
:10038000BB89E889F9898C9185FD03C0808186FD50
:100390000DC00FB607FCF7CF8C9185FFF2CF80819F
:1003A00085FFEDCFCE010E944A01E9CFDF91CF91C9
:1003B0000895833081F028F4813099F08230A9F0DB
:1003C00008958730A9F08830C9F08430B1F4809165
:1003D00080008F7D03C0809180008F7780938000A4
:1003E000089584B58F7784BD089584B58F7DFBCF44
:1003F0008091B0008F778093B00008958091B00015
:100400008F7DF9CFCF93DF93282F30E0F901EE589D
:10041000FF4F8491F901E255FF4FD491F901E6565F
:10042000FF4FC491CC23A1F081110E94D901EC2F80
:10043000F0E0EE0FFF1FEA57FF4FA591B491EC914A
:10044000ED2381E090E009F480E0DF91CF91089501
:1004500080E090E0FACF1F93CF93DF93282F30E016
:10046000F901EE58FF4F8491F901E255FF4FD49105
:10047000F901E656FF4FC491CC23A9F0162F811144
:100480000E94D901EC2FF0E0EE0FFF1FE057FF4F65
:10049000A591B4918FB7F894EC91111108C0D09543
:1004A000DE23DC938FBFDF91CF911F910895DE2B68
:1004B000F8CFCF93DF9390E0FC01E255FF4F2491FA
:1004C00086569F4FFC0184918823C9F090E0880FE5
:1004D000991FFC01E859FF4FA591B491FC01E05729
:1004E000FF4FC591D49161110DC09FB7F8948C91C5
:1004F000209582238C938881282328839FBFDF91B6
:10050000CF910895623051F49FB7F8943C91822FB7
:10051000809583238C93E8812E2BEFCF8FB7F894AF
:10052000EC912E2B2C938FBFEACF20915F0330915B
:1005300060032817390771F490915D0380915E0381
:10054000981741F0E0915D03F0E0E85EFC4F808198
:1005500090E008958FEF9FEF08950895EF92FF9236
:100560000F931F93CF93DF93DC015C96ED90FC908B
:100570005D97E114F10479F481E090E013969C9387
:100580008E93129790E080E0DF91CF911F910F91B1
:10059000FF90EF9008955196ED91FC9152975096EF
:1005A0008C915097982F90950FB75E962C915E97EF
:1005B000122F127021FD6095F8942081112319F1FA
:1005C000282B2083E7012197F1F728E0462F50E000
:1005D000308160FF1AC0382B3083E7012197F1F793
:1005E000BA0175956795215089F7112381F08081B3
:1005F000892380830FBF5C968D919C910197F1F7C1
:1006000081E090E0C1CF2923DCCF3923E5CF908171
:10061000892BEFCF20915F033091600328173907B2
:1006200071F480915E0320915D0390E0805C9F4FA8
:10063000821B910960E470E00E94CC0B089590E069
:1006400080E0089520915F033091600328173907F7
:10065000B9F490915D0380915E03981789F0E09161
:100660005D03F0E0E85EFC4F808120915D0330E0A7
:100670002F5F3F4F2F73332720935D0390E0089542
:100680008FEF9FEF089590E080E00895FC010190C6
:100690000020E9F73197AF01481B590BBC0186E6F2
:1006A00093E00C94CC008F929F92AF92BF920F93E5
:1006B0001F93CF93DF93CDB7DEB7A1970FB6F89412
:1006C000DEBF0FBECDBF19A2423008F44AE08E0152
:1006D0000F5D1F4F842E912CB12CA12CA5019401EC
:1006E0000E94E00BE62FB901CA01EA30F4F4E05DA4
:1006F000D801EE938D01232B242B252B79F790E045
:1007000080E0109719F0CD010E944603A1960FB624
:10071000F894DEBF0FBECDBFDF91CF911F910F9137
:10072000BF90AF909F908F900895E95CE1CFCF92FA
:10073000DF92EF92FF92CF93DF9397FF1BC06B0185
:100740007C016DE286E693E00E946C01EC01662775
:100750007727CB016C197D098E099F094AE00E9419
:1007600053038C0F9D1FDF91CF91FF90EF90DF908F
:10077000CF9008954AE0DF91CF91FF90EF90DF9006
:10078000CF900C9453030C944603CF93DF93BC019A
:10079000990F880B990B0E949703EC018FE591E06C
:1007A0000E9446038C0F9D1FDF91CF9108951F93E8
:1007B000CF93DF9382E691E00E94C303C3E0D4E0CD
:1007C0006E8D70E090E080E04AE00E94530383E782
:1007D00091E00E94C3038E8D15E0EB8DFC8D819F0F
:1007E000E00DF11D11246281738190E080E04AE008
:1007F0000E94530383E791E00E94C3038E8DEB8D2B
:10080000FC8D819FE00DF11D11246281738190E0C8
:1008100080E04AE00E9453038CE791E00E94C3030A
:100820008E8DEB8DFC8D819FE00DF11D1124848157
:10083000817090E00E94C50389E891E00E94C303A3
:100840008E8DEB8DFC8D819FE00DF11D1124848137
:10085000887090E0DF91CF911F910C94C503E0E880
:10086000F0E080818083E3E0F4E082A98D6F82ABC9
:100870000E94D70360E08DE00C942B028091350438
:1008800081FD0C942F040895CF9380912104C5E03D
:10089000E0911E04F0911F048C9FE00DF11D1124C6
:1008A000648161708CE00E942B0280912104E091B0
:1008B0001E04F0911F048C9FE00DF11D1124648132
:1008C00068708AE00E942B0260E089E00E942B029F
:1008D00080912104E0911E04F0911F048C9FE00D93
:1008E000F11D1124228133812115310571F050E071
:1008F00040E066E87AE482E090E00E94020C215039
:100900002093B300CF910C94D7030E943E04FACFFA
:10091000809135048D7F91F00E94440461E08DE068
:100920000E942B028091350482608093350480916F
:1009300080008064809380000C94D7030895FF9218
:100940000F931F93CF93DF93F82E8FB7F8940091F6
:1009500062031091630320916403309165038FBF9C
:10096000C3E0D4E0088719872A873B871C861D8649
:100970001E861F868AA984708AAB0E943E046F2D52
:100980008CE00E942B021AAA88EE8093B300DF91BC
:10099000CF911F910F91FF900C948804CF93DF9318
:1009A000D0E0C0E0009719F00E944603EC018FE50B
:1009B00091E00E9446038C0F9D1FDF91CF91089517
:1009C0001F920F920FB60F9211242F933F934F93C4
:1009D0005F936F937F938F939F93AF93BF93EF93A7
:1009E000FF9386E693E00E944A01FF91EF91BF9149
:1009F000AF919F918F917F916F915F914F913F91B7
:100A00002F910F900FBE0F901F9018951F920F926D
:100A10000FB60F9211242F938F939F93EF93FF9311
:100A2000E0917603F09177038081E0917C03F0916F
:100A30007D0382FD1BC0908180917F038F5F8F7348
:100A400020918003821741F0E0917F03F0E0EA59A2
:100A5000FC4F958F80937F03FF91EF919F918F9132
:100A60002F910F900FBE0F901F9018958081F4CF9B
:100A70001F920F920FB60F9211242F933F938F93D3
:100A80009F93AF93BF938091620390916303A09172
:100A90006403B091650330915C0323E0230F2D378D
:100AA00058F50196A11DB11D20935C03809362034C
:100AB00090936303A0936403B093650380915803FC
:100AC00090915903A0915A03B0915B030196A11D27
:100AD000B11D8093580390935903A0935A03B09388
:100AE0005B03BF91AF919F918F913F912F910F9099
:100AF0000FBE0F901F90189526E8230F0296A11D98
:100B0000B11DD2CF1F920F920FB60F9211242F93C7
:100B10003F934F935F936F937F938F939F93AF9385
:100B2000BF93EF93FF93E0915F03F09160033097E1
:100B300049F0A685B7858585968D91FF14C09C9157
:100B40008923A1F4FF91EF91BF91AF919F918F9174
:100B50007F916F915F914F913F912F910F900FBEB9
:100B60000F901F9018959C91892361F7A389B489F0
:100B70009C918589809589238C9386899789019793
:100B8000F1F7608D718DA685B785558538E020E039
:100B9000CB010197F1F7822F90E095958795282F4B
:100BA0004C91452309F02068315091F7868D81FDE5
:100BB000209580915E0390E001968F739927309184
:100BC0005D03381799F0A0915E03B0E0A85EBC4FBA
:100BD0002C9380935E03828D938D0197F1F7A38907
:100BE000B4898C919589892B8C93ACCF868D81604B
:100BF000868FF1CF109269031092680388EE93E01C
:100C0000A0E0B0E080936A0390936B03A0936C0321
:100C1000B0936D032FE331E03093670320936603B5
:100C200025EC30E0309373032093720324EC30E022
:100C3000309375032093740320EC30E030937703F6
:100C40002093760321EC30E03093790320937803EE
:100C500022EC30E030937B0320937A0326EC30E0E3
:100C600030937D0320937C0310927F0310928003C6
:100C7000109281031092820310924704109246044E
:100C80008093480490934904A0934A04B0934B0482
:100C900081E591E0909345048093440410925B04B5
:100CA00010925A0410925D0410925C0410925F043A
:100CB00010925E04109261041092600460916204CC
:100CC0006E7F6D7F609362046695617081E0682736
:100CD00083E00E942B0261E083E00E945902E1EB75
:100CE000F0E0E491E0935404EDE9F0E0E491F0E009
:100CF000EE0FFF1FE057FF4F85919491909356049C
:100D00008093550460E082E00E9459028091620461
:100D100081FD04C061E082E00E942B0282E08093AA
:100D20005004E0EBF0E0E491E0935104ECE9F0E0F2
:100D3000E491F0E0EE0FFF1FEA57FF4F8591949189
:100D4000909353048093520410921304109214044D
:100D500010921504109216041092170410921804A1
:100D60001092190410921A0481E391E090931C04EC
:100D700080931B0410921D048091340190913501E1
:100D800090931F0480931E0480913301809320046C
:100D90001092210410923204109233041092340401
:100DA00010923504109239041092380410923E04C7
:100DB000109241048EE291E09093370480933604C0
:100DC00084E394E09093400480933F0480912E014B
:100DD00090E090933D0480933C0480912F0190918A
:100DE000300190933B0480933A040895CF93DF93AE
:100DF000CDB7DEB729970FB6F894DEBF0FBECDBFD3
:100E0000789484B5826084BD84B5816084BD85B5E5
:100E1000826085BD85B5816085BD80916E008160F1
:100E200080936E0010928100809181008260809397
:100E30008100809181008160809381008091800099
:100E40008160809380008091B10084608093B100C4
:100E50008091B00081608093B00080917A008460BE
:100E600080937A0080917A00826080937A008091EA
:100E70007A00816080937A0080917A008068809304
:100E80007A001092C100E0917603F091770382E03E
:100E90008083E0917203F09173031082E0917403F8
:100EA000F091750380E1808310927E03E0917A03D4
:100EB000F0917B0386E08083E0917803F0917903E1
:100EC000808180618083E0917803F0917903808153
:100ED00088608083E0917803F09179038081806855
:100EE0008083E0917803F091790380818F7D808306
:100EF00010925F0410925E0410925D0410925C04E4
:100F000010925B0410925A048DE991E09093610471
:100F10008093600490915004963108F047C02DEB07
:100F200030E030935B0420935A042BE931E0309396
:100F30005D0420935C042CE231E030935F04209345
:100F40005E042091680084E0983048F031E09E30E3
:100F500008F430E081E001C0880F3A95EAF7822B6F
:100F6000809368002DE630E0983050F02BE630E0BA
:100F70009E3030F02CE630E0963110F030E020E08A
:100F80003093580420935704292F30E0983008F00C
:100F90007AC081E001C0880F9A95EAF780935904DE
:100FA00080916004909161040197F1F780915E0453
:100FB00090915F04892B49F1E0915F03F091600308
:100FC00004E0E434F00709F1309739F0A389B489DB
:100FD0009C918589809589238C93809162048E7F72
:100FE0008093620410925E0310925D0384E494E0A7
:100FF0009093600380935F03E0915704F09158044D
:10100000808190915904892B808361E08CE00E945B
:10101000590261E08AE00E94590261E089E00E9481
:10102000590261E08DE00E94590284E494E09093BB
:1010300043048093420480913C0490913D0418162F
:1010400019060CF072C01A82198210E000E080913B
:101050003C0490913D040817190714F5E0913A04F7
:10106000F0913B0429813A81E20FF31F62E0808115
:101070000E9459020F5F1F4F49815A814D5F5F4F98
:101080005A834983E4CF9E3040F42850310981E0EF
:1010900001C0880F2A95EAF781CF2E503109F7CF8A
:1010A00081E991E00E94C30380913C0490913D044A
:1010B0000E94C5031A821982C12CD12C760180911D
:1010C0003C0490913D04C816D9067CF585EA91E070
:1010D0000E94C303C701B6010E9497038EEA91E004
:1010E0000E94C30382EB91E00E94C303E0913A04A3
:1010F000F0913B0409811A81E00FF11F608170E0DB
:1011000090E080E04AE00E9453038FE591E00E9466
:1011100046031FEFC11AD10AE10AF10A09811A81B7
:101120000D5F1F4F1A830983CACF1092800010925F
:101130008100809180008860809380008091810090
:10114000826080938100789481EC91E00E94CE04CB
:10115000A4E02A2E8091420490914304DC01ED9199
:10116000FC910084F185E02D099518161906ECF420
:101170008091420490914304DC01ED91FC91028442
:10118000F385E02D09959091330490FF31C0909143
:101190006103E92FF0E0ED5FFB4F8E33F9F4178E1A
:1011A000B2E0B0933304109261038091330481FF65
:1011B0004EC088ED91E00E94C30382E294E00E9459
:1011C000CE04809122041816D4F083EE91E00E94A0
:1011D0008D0084EB92E00E948D0037C0878F9F5F67
:1011E00090936103903108F4B5CF10923304DDCFB2
:1011F0008C3309F0AFCF916090933304ABCF84EF81
:1012000091E00E94C30380912204082E000C990BE8
:101210000E94C503E0912204E053E930D0F60E2E7F
:10122000000CFF0BEA5EF64F0C94210C1F096909B4
:101230007509880992099A09A009FF09A90A8AEF84
:1012400091E00E94CE041092350410923304109263
:101250003E0480913C0490913D047C01B1E0EB1A86
:10126000F1088C01000F111F080F191FF7FC8CC12A
:1012700003501109E0913A04F0913B04E00FF11F93
:101280008181880F818380810E940202892B71F401
:10129000E0913A04F0913B04E00FF11F81818160FD
:1012A00081838F3F09F06EC121E02283E0913A04EF
:1012B000F0913B04E00FF11F80913E04282F220F94
:1012C000330B8281822B80933E0431E0E31AF108D4
:1012D000CDCF87E092E00E94CE04809135048160FA
:1012E000809335040E948804B0CF85E192E00E948B
:1012F000CE0410E000E0809120048017110609F070
:101300000CF4A3CFC8010E949C000F5F1F4FF3CFC6
:1013100081E292E00E94CE048091210490E00E943C
:101320009C0093CF8DE292E00E94CE048FEF0E944A
:101330009F048BCF85E392E00E94CE0480E0F7CF3C
:101340008EE392E00E94CE040E943E048FB7F89490
:101350008090620390906303A0906403B090650353
:101360008FBF9401A50160E070E080E090E0A09064
:101370000B04B0900C04C0900D04D0900E04E090CB
:101380000F04F090100400911104109112040E94B7
:10139000E70CE8EEAE2EF3E0BF2EC12CD12CE12CF1
:1013A000F12C00E010E00E94810CA0900304B090AA
:1013B0000404C0900504D0900604E0900704F09067
:1013C00008040091090410910A040E94DE0C209385
:1013D000030430930404409305045093060460937F
:1013E0000704709308048093090490930A04809181
:1013F00035048170809335040E94440473CF87E4E0
:1014000092E00E94CE0400912304402F002E000C95
:10141000550B2091240480912504082E000C990B73
:10142000922B6091270470912604262F062E000C23
:10143000330B372B57FD05C0709120047417150628
:1014400034F480913204886080933204FECE8C3272
:10145000E1E09E0720F4809132048160F5CF2032D4
:10146000FEE43F0720F4809132048260EDCF15E066
:101470000102A0011124E0911E04F0911F04E40F69
:10148000F51F93838283E0911E04F0911F04E40F03
:10149000F51F31832083E0911E04F0911F04E40FB7
:1014A000F51F648381E592E00E94C303602F70E022
:1014B00090E080E04AE00E9453038EE592E00E94B3
:1014C000CE0481E892E00E94C303019F80011124B1
:1014D000E0911E04F0911F04E00FF11F62817381FF
:1014E00090E080E04AE00E9453038EE892E00E9480
:1014F000C303E0911E04F0911F04E00FF11F60810F
:10150000718190E080E04AE00E94530385E992E017
:101510000E94C303E0911E04F0911F04E00FF11F2D
:101520006481617070E090E080E00E94970381EA3E
:1015300092E00E94C30380911E0490911F04080F43
:10154000191FD80114968C91887090E00E94C503F1
:101550007CCE88EA92E00E94CE048AE00E940202D9
:1015600061E0892B09F060E08AE00E942B0289E0AB
:101570000E94020261E0892B09F060E089E00E948C
:101580002B0263CE128292CEE0913F04F091400490
:1015900080914104809590913E0489239081892B0C
:1015A000808380913E04809341048091340480FFC5
:1015B0001EC08091350485FF0FC00E943E0410922A
:1015C00021040E9444048091350481708093350485
:1015D0008BEC92E00E94CE04809135048860809369
:1015E00035041092340485ED92E00E94CE0480917F
:1015F000340481FF1EC08091350486FF0FC00E9415
:101600003E04209221040E9444048091350481709C
:10161000809335048CEE92E00E94CE0480913504D4
:101620008061809335041092340484EF92E00E942C
:10163000CE048091350480FF86C02FB7F894809146
:10164000620390916303A0916403B09165032FBF7F
:101650008C019D0140E050E0BA0189831A83AB837D
:101660003C834D835E836F8378879C014B815C81D3
:1016700060E070E080E090E0A0901304B09014046B
:10168000C0901504D0901604E0901704F090180450
:101690000091190410911A040E94E70C322E432E77
:1016A000542E652E762E872E982E998788EEA82E9A
:1016B00093E0B92EC12CD12CE12CF12C00E010E0EC
:1016C00020910304309104044091050450910604D4
:1016D00060910704709108048091090490910A04B4
:1016E0000E94270C59016A017B018C01232D342DA6
:1016F000452D562D672D782D892D99850E94F00C4A
:1017000011F108F1809121048F5F80932104909161
:101710002004891302C0109221040E9444041981FC
:10172000109313042A81209314043B8130931504F1
:101730004C814093160410921704109218041092D2
:10174000190410921A0460E070E0672B09F402CDCE
:101750000E943601882309F4FDCC0E940000FACCD7
:1017600081E591E0909345048093440480915F0368
:10177000909160038454944071F4E0915704F09187
:101780005804908180915904809589238083109218
:10179000600310925F03089597FB072E16F40094E0
:1017A00007D077FD09D00E94F90C07FC05D03EF464
:1017B000909581959F4F0895709561957F4F0895FD
:1017C000A1E21A2EAA1BBB1BFD010DC0AA1FBB1F45
:1017D000EE1FFF1FA217B307E407F50720F0A21BB7
:1017E000B30BE40BF50B661F771F881F991F1A9424
:1017F00069F760957095809590959B01AC01BD014E
:10180000CF010895052E97FB1EF400940E94190C39
:1018100057FD07D00E94E00B07FC03D04EF40C9458
:10182000190C50954095309521953F4F4F4F5F4F84
:10183000089590958095709561957F4F8F4F9F4F3C
:101840000895EE0FFF1F0590F491E02D0994DF93AA
:10185000CF931F930F939A9DF02D219FF00D8B9D99
:10186000F00D8A9DE02DF10D039FF00D029FE00D1C
:10187000F11D4E9DE00DF11D5E9DF00D4F9DF00D93
:101880007F936F93BF92AF925F934F93D5010E9466
:101890000D0D8B01AC01D7010E940D0DEB01E80F7E
:1018A000F91FD6010E94760C2F913F91D6010E941C
:1018B0000D0DC60FD71FE81FF91FAF91BF910E94F2
:1018C000760C2F913F910E940D0DC60FD71FE81F78
:1018D000F91FD6010E940D0DE60FF71F9801BE01FA
:1018E000CF010F911F91CF91DF9108950E940D0DAF
:1018F000460F571FC81FD91F08F4319608956894E2
:1019000001C0E8948F929F92CF93DF930E948D0C39
:10191000DF91CF919F908F90089588249924F401AE
:10192000E401B0E49F93AA279A158B049C04ED056B
:10193000FE05CF05D007A10798F4AD2FDC2FCF2FE0
:10194000FE2FE92D982C892E982F872F762F652F23
:10195000542F432F322F2227B85031F7BF9127C081
:101960001B2EBF91BB27220F331F441F551F661F1D
:10197000771F881F991F881C991CEE1FFF1FCC1F03
:10198000DD1FAA1FBB1F8A149B04EC05FD05CE05B5
:10199000DF05A007B10748F08A189B08EC09FD098C
:1019A000CE09DF09A00BB10B21601A94E1F62EF4E9
:1019B0009401AF01BE01CD01000C08952A0D3B1D1D
:1019C0004C1D5D1D6E1D7F1D801F911F08952A19DE
:1019D0003B094C095D096E097F09800B910B089545
:1019E0002A153B054C055D056E057F0580079107AF
:1019F0000895AA1BBB1B51E107C0AA1FBB1FA61756
:101A0000B70710F0A61BB70B881F991F5A95A9F7A7
:101A100080959095BC01CD010895A29FB001B39F20
:101A2000C001A39F700D811D1124911DB29F700DE7
:101A3000811D1124911D089510E0C2E6D0E004C07C
:101A4000FE010E94210C2196C336D107C9F7F894F4
:101A5000FFCF040000050000C800C80000C800C88F
:101A600000010A002800017700C80001F0011900F8
:101A700001E6002800014000640000C500C800081D
:101A80000200010B03061001100302060100000012
:101A9000006C01CC00F900B9012A0108011C010009
:101AA000000000AE02CC004303AD020A03220395FE
:101AB000020D0A002043757272656E7420537461C2
:101AC00074653A20002053706565643A2000204414
:101AD0006972656374696F6E3A20002047617465AE
:101AE0003A20004E756D626572206F6620427574F3
:101AF000746F6E733A2000427574746F6E3A2000F2
:101B0000203A200041737369676E65642050696EE6
:101B10003A2000436F6E74726F6C6C657220496E70
:101B2000697469617465643A20004D5347205243DB
:101B300056443A20004E6F20436F6D6D616E6420F5
:101B4000466F756E6400434D443A200053746F70C5
:101B50002050726F6772616D00537461727420500F
:101B6000726F6772616D0053656E642053746174A7
:101B70006573004765742043757272656E74004624
:101B80007764204A6F67004261636B204A6F670089
:101B900053746F70204A6F670053657420537461EB
:101BA0007465004D6F746F7220537461746520000A
:101BB0002073657420776974682074686520666F87
:101BC0006C6C6F77696E672070726F706572746984
:101BD0006573004D6F746F722053706565643A00D1
:101BE0002054696D653A0020446972656374696FB9
:101BF0006E3A0020476174653A004368616E67651C
:101C00002047617465004E6F2056616C6964204303
:101C10006F6D6D616E6420466F756E640041742057
:101C2000537461727421004C696D69742053776933
:101C30007463682031207072657373656400417449
:101C400020456E6421004C696D6974205377697476
:101C5000636820322070726573736564004D61693A
:0A1C60006E005365636F6E640000B0
:107E0000112484B714BE81FFF0D085E080938100F7
:107E100082E08093C00088E18093C10086E0809377
:107E2000C20080E18093C4008EE0C9D0259A86E02C
:107E300020E33CEF91E0309385002093840096BBD3
:107E4000B09BFECF1D9AA8958150A9F7CC24DD24C4
:107E500088248394B5E0AB2EA1E19A2EF3E0BF2EE7
:107E6000A2D0813461F49FD0082FAFD0023811F036
:107E7000013811F484E001C083E08DD089C08234E0
:107E800011F484E103C0853419F485E0A6D080C0E4
:107E9000853579F488D0E82EFF2485D0082F10E0AE
:107EA000102F00270E291F29000F111F8ED06801E7
:107EB0006FC0863521F484E090D080E0DECF843638
:107EC00009F040C070D06FD0082F6DD080E0C81688
:107ED00080E7D80618F4F601B7BEE895C0E0D1E017
:107EE00062D089930C17E1F7F0E0CF16F0E7DF06D8
:107EF00018F0F601B7BEE89568D007B600FCFDCFD4
:107F0000A601A0E0B1E02C9130E011968C91119780
:107F100090E0982F8827822B932B1296FA010C0160
:107F200087BEE89511244E5F5F4FF1E0A038BF0790
:107F300051F7F601A7BEE89507B600FCFDCF97BE46
:107F4000E89526C08437B1F42ED02DD0F82E2BD052
:107F50003CD0F601EF2C8F010F5F1F4F84911BD097
:107F6000EA94F801C1F70894C11CD11CFA94CF0C13
:107F7000D11C0EC0853739F428D08EE10CD085E9AC
:107F80000AD08FE07ACF813511F488E018D01DD067
:107F900080E101D065CF982F8091C00085FFFCCF94
:107FA0009093C60008958091C00087FFFCCF809118
:107FB000C00084FD01C0A8958091C6000895E0E648
:107FC000F0E098E1908380830895EDDF803219F02E
:107FD00088E0F5DFFFCF84E1DECF1F93182FE3DFCA
:107FE0001150E9F7F2DF1F91089580E0E8DFEE27F6
:047FF000FF270994CA
:027FFE00040479
:00000001FF
